{"abi":[{"type":"constructor","inputs":[{"name":"_hypercertToken","type":"address","internalType":"address"}],"stateMutability":"nonpayable"},{"type":"function","name":"getProject","inputs":[{"name":"creator","type":"address","internalType":"address"},{"name":"metadataURI","type":"string","internalType":"string"}],"outputs":[{"name":"","type":"tuple","internalType":"struct Cairn.Project","components":[{"name":"tokenID","type":"uint256","internalType":"uint256"},{"name":"metadataURI","type":"string","internalType":"string"},{"name":"units","type":"uint256","internalType":"uint256"},{"name":"restrictions","type":"uint8","internalType":"enum IHypercertToken.TransferRestrictions"},{"name":"outputsURI","type":"string","internalType":"string"}]}],"stateMutability":"view"},{"type":"function","name":"getUserMetadataURIs","inputs":[{"name":"user","type":"address","internalType":"address"}],"outputs":[{"name":"","type":"string[]","internalType":"string[]"}],"stateMutability":"view"},{"type":"function","name":"hypercertToken","inputs":[],"outputs":[{"name":"","type":"address","internalType":"contract IHypercertToken"}],"stateMutability":"view"},{"type":"function","name":"recordOutputs","inputs":[{"name":"metadataURI","type":"string","internalType":"string"},{"name":"outputsURI","type":"string","internalType":"string"}],"outputs":[],"stateMutability":"nonpayable"},{"type":"function","name":"registerProject","inputs":[{"name":"metadataURI","type":"string","internalType":"string"},{"name":"units","type":"uint256","internalType":"uint256"},{"name":"restrictions","type":"uint8","internalType":"enum IHypercertToken.TransferRestrictions"}],"outputs":[],"stateMutability":"nonpayable"},{"type":"function","name":"storeTokenID","inputs":[{"name":"metadataURI","type":"string","internalType":"string"},{"name":"tokenID","type":"uint256","internalType":"uint256"}],"outputs":[],"stateMutability":"nonpayable"},{"type":"function","name":"userMetadataURIs","inputs":[{"name":"","type":"address","internalType":"address"},{"name":"","type":"uint256","internalType":"uint256"}],"outputs":[{"name":"","type":"string","internalType":"string"}],"stateMutability":"view"},{"type":"event","name":"OutputsRecorded","inputs":[{"name":"creator","type":"address","indexed":true,"internalType":"address"},{"name":"tokenID","type":"uint256","indexed":true,"internalType":"uint256"},{"name":"metadataURI","type":"string","indexed":false,"internalType":"string"},{"name":"outputsURI","type":"string","indexed":false,"internalType":"string"}],"anonymous":false},{"type":"event","name":"ProjectRegistered","inputs":[{"name":"creator","type":"address","indexed":true,"internalType":"address"},{"name":"tokenID","type":"uint256","indexed":true,"internalType":"uint256"},{"name":"metadataURI","type":"string","indexed":false,"internalType":"string"}],"anonymous":false}],"bytecode":{"object":"0x608060405234801561001057600080fd5b5060405161137e38038061137e83398101604081905261002f91610054565b600080546001600160a01b0319166001600160a01b0392909216919091179055610084565b60006020828403121561006657600080fd5b81516001600160a01b038116811461007d57600080fd5b9392505050565b6112eb806100936000396000f3fe608060405234801561001057600080fd5b506004361061007d5760003560e01c8063cf83c0ce1161005b578063cf83c0ce146100d3578063ddda1e07146100f3578063de4cecdf14610106578063f49bdbea1461012657600080fd5b80633ca100b51461008257806344493e7f1461009757806366468a5e146100aa575b600080fd5b610095610090366004610d8f565b610151565b005b6100956100a5366004610dee565b610347565b6100bd6100b8366004610e48565b6106ab565b6040516100ca9190610ec4565b60405180910390f35b6100e66100e1366004610ede565b610764565b6040516100ca9190610efb565b610095610101366004610f5d565b610853565b610119610114366004610fc1565b610a13565b6040516100ca919061101d565b600054610139906001600160a01b031681565b6040516001600160a01b0390911681526020016100ca565b600383604051610161919061109d565b9081526040519081900360200190205460ff16156101d15760405162461bcd60e51b815260206004820152602260248201527f4d657461646174612055524920616c7265616479207573656420676c6f62616c6044820152616c7960f01b60648201526084015b60405180910390fd5b6040518060a001604052806000815260200184815260200183815260200182600281111561020157610201611007565b815260408051602081810183526000808352938101919091523383526001905290819020905161023290869061109d565b90815260405160209181900382019020825181559082015160018201906102599082611142565b506040820151816002015560608201518160030160006101000a81548160ff0219169083600281111561028e5761028e611007565b0217905550608082015160048201906102a79082611142565b50503360009081526002602090815260408220805460018101825590835291200190506102d48482611142565b5060016003846040516102e7919061109d565b908152604051908190036020018120805492151560ff199093169290921790915560009033907ffa4b098e431ea3e9694b01acc7953efb1277c5eb3e4c4badf3c0e0e79f857b949061033a908790610ec4565b60405180910390a3505050565b806000036103895760405162461bcd60e51b815260206004820152600f60248201526e125b9d985b1a59081d1bdad95b9251608a1b60448201526064016101c8565b600382604051610399919061109d565b9081526040519081900360200190205460ff166103f85760405162461bcd60e51b815260206004820152601a60248201527f50726f6a65637420646f6573206e6f742065786973742079657400000000000060448201526064016101c8565b33600090815260016020526040808220905161041590859061109d565b90815260200160405180910390209050806001018054610434906110b9565b90506000036104555760405162461bcd60e51b81526004016101c890611202565b3360009081526001602052604090819020905161047390859061109d565b90815260405190819003602001902054156104c65760405162461bcd60e51b81526020600482015260136024820152721d1bdad95b925108185b1c9958591e481cd95d606a1b60448201526064016101c8565b604080518082018252600e81526d27bbb732b91037b3103a37b5b2b760911b602082015260005491516331a9108f60e11b81526004810185905261055d926001600160a01b031690636352211e90602401602060405180830381865afa158015610534573d6000803e3d6000fd5b505050506040513d601f19601f820116820180604052508101906105589190611249565b610c36565b6000546040516331a9108f60e11b81526004810184905233916001600160a01b031690636352211e90602401602060405180830381865afa1580156105a6573d6000803e3d6000fd5b505050506040513d601f19601f820116820180604052508101906105ca9190611249565b6001600160a01b0316146106465760405162461bcd60e51b815260206004820152603b60248201527f596f7520617265206e6f74206f776e6572206f6620746f6b656e4944206f722060448201527f74686520746f6b656e494420646f6573206e6f7420657869737473000000000060648201526084016101c8565b3360009081526001602052604090819020905183919061066790869061109d565b90815260405190819003602001812091909155829033907ffa4b098e431ea3e9694b01acc7953efb1277c5eb3e4c4badf3c0e0e79f857b949061033a908790610ec4565b600260205281600052604060002081815481106106c757600080fd5b906000526020600020016000915091505080546106e3906110b9565b80601f016020809104026020016040519081016040528092919081815260200182805461070f906110b9565b801561075c5780601f106107315761010080835404028352916020019161075c565b820191906000526020600020905b81548152906001019060200180831161073f57829003601f168201915b505050505081565b6001600160a01b0381166000908152600260209081526040808320805482518185028101850190935280835260609492939192909184015b828210156108485783829060005260206000200180546107bb906110b9565b80601f01602080910402602001604051908101604052809291908181526020018280546107e7906110b9565b80156108345780601f1061080957610100808354040283529160200191610834565b820191906000526020600020905b81548152906001019060200180831161081757829003601f168201915b50505050508152602001906001019061079c565b505050509050919050565b600382604051610863919061109d565b9081526040519081900360200190205460ff166108c25760405162461bcd60e51b815260206004820152601a60248201527f50726f6a65637420646f6573206e6f742065786973742079657400000000000060448201526064016101c8565b3360009081526001602052604080822090516108df90859061109d565b908152602001604051809103902090508060010180546108fe906110b9565b905060000361091f5760405162461bcd60e51b81526004016101c890611202565b80546000036109705760405162461bcd60e51b815260206004820152601760248201527f50726f6a65637420746f6b656e4944206e6f742073657400000000000000000060448201526064016101c8565b80600401805461097f906110b9565b1590506109ce5760405162461bcd60e51b815260206004820152601860248201527f4f75747075747320616c7265616479207265636f72646564000000000000000060448201526064016101c8565b600481016109dc8382611142565b50805460405133907f83810a5ae5d74fe9f6edba3f5afafdd0f80dc76006055b5c9d592bfd84daab669061033a9087908790611266565b610a1b610cac565b600382604051610a2b919061109d565b9081526040519081900360200190205460ff16610a835760405162461bcd60e51b8152602060048201526016602482015275141c9bda9958dd08191bd95cc81b9bdd08195e1a5cdd60521b60448201526064016101c8565b6001600160a01b038316600090815260016020526040908190209051610aaa90849061109d565b90815260200160405180910390206040518060a001604052908160008201548152602001600182018054610add906110b9565b80601f0160208091040260200160405190810160405280929190818152602001828054610b09906110b9565b8015610b565780601f10610b2b57610100808354040283529160200191610b56565b820191906000526020600020905b815481529060010190602001808311610b3957829003601f168201915b50505091835250506002828101546020830152600383015460409092019160ff1690811115610b8757610b87611007565b6002811115610b9857610b98611007565b8152602001600482018054610bac906110b9565b80601f0160208091040260200160405190810160405280929190818152602001828054610bd8906110b9565b8015610c255780601f10610bfa57610100808354040283529160200191610c25565b820191906000526020600020905b815481529060010190602001808311610c0857829003601f168201915b505050505081525050905092915050565b610c7b8282604051602401610c4c92919061128b565b60408051601f198184030181529190526020810180516001600160e01b031663319af33360e01b179052610c7f565b5050565b610c8881610c8b565b50565b60006a636f6e736f6c652e6c6f679050600080835160208501845afa505050565b6040518060a0016040528060008152602001606081526020016000815260200160006002811115610cdf57610cdf611007565b8152602001606081525090565b634e487b7160e01b600052604160045260246000fd5b600082601f830112610d1357600080fd5b813567ffffffffffffffff80821115610d2e57610d2e610cec565b604051601f8301601f19908116603f01168101908282118183101715610d5657610d56610cec565b81604052838152866020858801011115610d6f57600080fd5b836020870160208301376000602085830101528094505050505092915050565b600080600060608486031215610da457600080fd5b833567ffffffffffffffff811115610dbb57600080fd5b610dc786828701610d02565b93505060208401359150604084013560038110610de357600080fd5b809150509250925092565b60008060408385031215610e0157600080fd5b823567ffffffffffffffff811115610e1857600080fd5b610e2485828601610d02565b95602094909401359450505050565b6001600160a01b0381168114610c8857600080fd5b60008060408385031215610e5b57600080fd5b8235610e6681610e33565b946020939093013593505050565b60005b83811015610e8f578181015183820152602001610e77565b50506000910152565b60008151808452610eb0816020860160208601610e74565b601f01601f19169290920160200192915050565b602081526000610ed76020830184610e98565b9392505050565b600060208284031215610ef057600080fd5b8135610ed781610e33565b6000602080830181845280855180835260408601915060408160051b870101925083870160005b82811015610f5057603f19888603018452610f3e858351610e98565b94509285019290850190600101610f22565b5092979650505050505050565b60008060408385031215610f7057600080fd5b823567ffffffffffffffff80821115610f8857600080fd5b610f9486838701610d02565b93506020850135915080821115610faa57600080fd5b50610fb785828601610d02565b9150509250929050565b60008060408385031215610fd457600080fd5b8235610fdf81610e33565b9150602083013567ffffffffffffffff811115610ffb57600080fd5b610fb785828601610d02565b634e487b7160e01b600052602160045260246000fd5b60208152815160208201526000602083015160a0604084015261104360c0840182610e98565b90506040840151606084015260608401516003811061107257634e487b7160e01b600052602160045260246000fd5b806080850152506080840151601f198483030160a08501526110948282610e98565b95945050505050565b600082516110af818460208701610e74565b9190910192915050565b600181811c908216806110cd57607f821691505b6020821081036110ed57634e487b7160e01b600052602260045260246000fd5b50919050565b601f82111561113d57600081815260208120601f850160051c8101602086101561111a5750805b601f850160051c820191505b8181101561113957828155600101611126565b5050505b505050565b815167ffffffffffffffff81111561115c5761115c610cec565b6111708161116a84546110b9565b846110f3565b602080601f8311600181146111a5576000841561118d5750858301515b600019600386901b1c1916600185901b178555611139565b600085815260208120601f198616915b828110156111d4578886015182559484019460019091019084016111b5565b50858210156111f25787850151600019600388901b60f8161c191681555b5050505050600190811b01905550565b60208082526027908201527f596f7520617265206e6f74207468652063726561746f72206f662074686973206040820152661c1c9bda9958dd60ca1b606082015260800190565b60006020828403121561125b57600080fd5b8151610ed781610e33565b6040815260006112796040830185610e98565b82810360208401526110948185610e98565b60408152600061129e6040830185610e98565b905060018060a01b0383166020830152939250505056fea2646970667358221220b3a161e9f0cb477c8cf41c62d6936eb40c40c52daad1400b8c5a425da002358864736f6c63430008110033","linkReferences":{}},"methodIdentifiers":{"getProject(address,string)":"de4cecdf","getUserMetadataURIs(address)":"cf83c0ce","hypercertToken()":"f49bdbea","recordOutputs(string,string)":"ddda1e07","registerProject(string,uint256,uint8)":"3ca100b5","storeTokenID(string,uint256)":"44493e7f","userMetadataURIs(address,uint256)":"66468a5e"},"id":19}