{"abi":[{"type":"constructor","inputs":[{"name":"_hypercertToken","type":"address","internalType":"address"},{"name":"_paymentToken","type":"address","internalType":"address"},{"name":"_minRequiredPoR","type":"uint8","internalType":"uint8"},{"name":"_maxPoRProject","type":"uint8","internalType":"uint8"},{"name":"_disputeWindowPoR","type":"uint256","internalType":"uint256"},{"name":"_maxFundingLow","type":"uint256","internalType":"uint256"},{"name":"_maxFundingMedium","type":"uint256","internalType":"uint256"},{"name":"_maxFundingHigh","type":"uint256","internalType":"uint256"}],"stateMutability":"nonpayable"},{"type":"function","name":"allProjectURIs","inputs":[{"name":"","type":"uint256","internalType":"uint256"}],"outputs":[{"name":"","type":"string","internalType":"string"}],"stateMutability":"view"},{"type":"function","name":"allProofURIs","inputs":[{"name":"","type":"uint256","internalType":"uint256"}],"outputs":[{"name":"","type":"string","internalType":"string"}],"stateMutability":"view"},{"type":"function","name":"disputeProof","inputs":[{"name":"proofURI","type":"string","internalType":"string"},{"name":"disputeURI","type":"string","internalType":"string"}],"outputs":[],"stateMutability":"nonpayable"},{"type":"function","name":"disputeWindowPoR","inputs":[],"outputs":[{"name":"","type":"uint256","internalType":"uint256"}],"stateMutability":"view"},{"type":"function","name":"fundProject","inputs":[{"name":"amount","type":"uint256","internalType":"uint256"},{"name":"projectURI","type":"string","internalType":"string"}],"outputs":[],"stateMutability":"nonpayable"},{"type":"function","name":"getAllProjects","inputs":[{"name":"start","type":"uint256","internalType":"uint256"},{"name":"count","type":"uint256","internalType":"uint256"}],"outputs":[{"name":"","type":"tuple[]","internalType":"struct Cairn.Project[]","components":[{"name":"creator","type":"address","internalType":"address"},{"name":"typeID","type":"uint256","internalType":"uint256"},{"name":"tokenIDs","type":"uint256[]","internalType":"uint256[]"},{"name":"projectURI","type":"string","internalType":"string"},{"name":"outputsURI","type":"string","internalType":"string"},{"name":"proofs","type":"string[]","internalType":"string[]"},{"name":"impact","type":"uint8","internalType":"enum Cairn.Impact"},{"name":"funder","type":"address","internalType":"address"},{"name":"fundingGoal","type":"uint256","internalType":"uint256"}]}],"stateMutability":"view"},{"type":"function","name":"getProject","inputs":[{"name":"projectURI","type":"string","internalType":"string"}],"outputs":[{"name":"","type":"tuple","internalType":"struct Cairn.Project","components":[{"name":"creator","type":"address","internalType":"address"},{"name":"typeID","type":"uint256","internalType":"uint256"},{"name":"tokenIDs","type":"uint256[]","internalType":"uint256[]"},{"name":"projectURI","type":"string","internalType":"string"},{"name":"outputsURI","type":"string","internalType":"string"},{"name":"proofs","type":"string[]","internalType":"string[]"},{"name":"impact","type":"uint8","internalType":"enum Cairn.Impact"},{"name":"funder","type":"address","internalType":"address"},{"name":"fundingGoal","type":"uint256","internalType":"uint256"}]}],"stateMutability":"view"},{"type":"function","name":"getProof","inputs":[{"name":"proofURI","type":"string","internalType":"string"}],"outputs":[{"name":"","type":"tuple","internalType":"struct Cairn.ProofOfReproducibility","components":[{"name":"proofURI","type":"string","internalType":"string"},{"name":"projectURI","type":"string","internalType":"string"},{"name":"recorder","type":"address","internalType":"address"},{"name":"recordedAt","type":"uint256","internalType":"uint256"},{"name":"dispute","type":"bool","internalType":"bool"},{"name":"disputeURI","type":"string","internalType":"string"}]}],"stateMutability":"view"},{"type":"function","name":"getProofURIsByProject","inputs":[{"name":"projectURI","type":"string","internalType":"string"}],"outputs":[{"name":"","type":"string[]","internalType":"string[]"}],"stateMutability":"view"},{"type":"function","name":"getUserAvailablePoRCount","inputs":[{"name":"user","type":"address","internalType":"address"}],"outputs":[{"name":"count","type":"uint256","internalType":"uint256"}],"stateMutability":"view"},{"type":"function","name":"getUserProjectURIs","inputs":[{"name":"user","type":"address","internalType":"address"}],"outputs":[{"name":"","type":"string[]","internalType":"string[]"}],"stateMutability":"view"},{"type":"function","name":"getUserProofURIs","inputs":[{"name":"user","type":"address","internalType":"address"}],"outputs":[{"name":"","type":"string[]","internalType":"string[]"}],"stateMutability":"view"},{"type":"function","name":"hypercertToken","inputs":[],"outputs":[{"name":"","type":"address","internalType":"contract IHypercertToken"}],"stateMutability":"view"},{"type":"function","name":"initProject","inputs":[{"name":"projectURI","type":"string","internalType":"string"},{"name":"_creator","type":"address","internalType":"address"}],"outputs":[],"stateMutability":"nonpayable"},{"type":"function","name":"isProofValid","inputs":[{"name":"proofURI","type":"string","internalType":"string"}],"outputs":[{"name":"","type":"bool","internalType":"bool"}],"stateMutability":"view"},{"type":"function","name":"maxFundingForImpact","inputs":[{"name":"","type":"uint8","internalType":"enum Cairn.Impact"}],"outputs":[{"name":"","type":"uint256","internalType":"uint256"}],"stateMutability":"view"},{"type":"function","name":"maxPoRProject","inputs":[],"outputs":[{"name":"","type":"uint8","internalType":"uint8"}],"stateMutability":"view"},{"type":"function","name":"minRequiredPoR","inputs":[],"outputs":[{"name":"","type":"uint8","internalType":"uint8"}],"stateMutability":"view"},{"type":"function","name":"owner","inputs":[],"outputs":[{"name":"","type":"address","internalType":"address"}],"stateMutability":"view"},{"type":"function","name":"paymentToken","inputs":[],"outputs":[{"name":"","type":"address","internalType":"contract IERC20"}],"stateMutability":"view"},{"type":"function","name":"projects","inputs":[{"name":"","type":"string","internalType":"string"}],"outputs":[{"name":"creator","type":"address","internalType":"address"},{"name":"typeID","type":"uint256","internalType":"uint256"},{"name":"projectURI","type":"string","internalType":"string"},{"name":"outputsURI","type":"string","internalType":"string"},{"name":"impact","type":"uint8","internalType":"enum Cairn.Impact"},{"name":"funder","type":"address","internalType":"address"},{"name":"fundingGoal","type":"uint256","internalType":"uint256"}],"stateMutability":"view"},{"type":"function","name":"proofs","inputs":[{"name":"","type":"string","internalType":"string"}],"outputs":[{"name":"proofURI","type":"string","internalType":"string"},{"name":"projectURI","type":"string","internalType":"string"},{"name":"recorder","type":"address","internalType":"address"},{"name":"recordedAt","type":"uint256","internalType":"uint256"},{"name":"dispute","type":"bool","internalType":"bool"},{"name":"disputeURI","type":"string","internalType":"string"}],"stateMutability":"view"},{"type":"function","name":"recordOutputs","inputs":[{"name":"projectURI","type":"string","internalType":"string"},{"name":"outputsURI","type":"string","internalType":"string"}],"outputs":[],"stateMutability":"nonpayable"},{"type":"function","name":"recordProof","inputs":[{"name":"projectURI","type":"string","internalType":"string"},{"name":"proofURI","type":"string","internalType":"string"}],"outputs":[],"stateMutability":"nonpayable"},{"type":"function","name":"registerProject","inputs":[{"name":"projectURI","type":"string","internalType":"string"},{"name":"tokenID","type":"uint256","internalType":"uint256"},{"name":"unitPrice","type":"uint256","internalType":"uint256"}],"outputs":[],"stateMutability":"nonpayable"},{"type":"function","name":"renounceOwnership","inputs":[],"outputs":[],"stateMutability":"nonpayable"},{"type":"function","name":"resolveDispute","inputs":[{"name":"proofURI","type":"string","internalType":"string"}],"outputs":[],"stateMutability":"nonpayable"},{"type":"function","name":"setProjectImpact","inputs":[{"name":"projectURI","type":"string","internalType":"string"},{"name":"impactLevel","type":"uint8","internalType":"enum Cairn.Impact"}],"outputs":[],"stateMutability":"nonpayable"},{"type":"function","name":"storeTokenID","inputs":[{"name":"projectURI","type":"string","internalType":"string"},{"name":"tokenID","type":"uint256","internalType":"uint256"}],"outputs":[],"stateMutability":"nonpayable"},{"type":"function","name":"storeTokenIDInit","inputs":[{"name":"projectURI","type":"string","internalType":"string"},{"name":"tokenID","type":"uint256","internalType":"uint256"},{"name":"unitPrice","type":"uint256","internalType":"uint256"}],"outputs":[],"stateMutability":"nonpayable"},{"type":"function","name":"transferOwnership","inputs":[{"name":"newOwner","type":"address","internalType":"address"}],"outputs":[],"stateMutability":"nonpayable"},{"type":"function","name":"userProjectURIs","inputs":[{"name":"","type":"address","internalType":"address"},{"name":"","type":"uint256","internalType":"uint256"}],"outputs":[{"name":"","type":"string","internalType":"string"}],"stateMutability":"view"},{"type":"function","name":"userProofURIs","inputs":[{"name":"","type":"address","internalType":"address"},{"name":"","type":"uint256","internalType":"uint256"}],"outputs":[{"name":"","type":"string","internalType":"string"}],"stateMutability":"view"},{"type":"event","name":"OutputsRecorded","inputs":[{"name":"creator","type":"address","indexed":true,"internalType":"address"},{"name":"typeID","type":"uint256","indexed":true,"internalType":"uint256"},{"name":"projectURI","type":"string","indexed":false,"internalType":"string"},{"name":"outputsURI","type":"string","indexed":false,"internalType":"string"}],"anonymous":false},{"type":"event","name":"OwnershipTransferred","inputs":[{"name":"previousOwner","type":"address","indexed":true,"internalType":"address"},{"name":"newOwner","type":"address","indexed":true,"internalType":"address"}],"anonymous":false},{"type":"event","name":"ProjectRegistered","inputs":[{"name":"creator","type":"address","indexed":true,"internalType":"address"},{"name":"typeID","type":"uint256","indexed":true,"internalType":"uint256"},{"name":"projectURI","type":"string","indexed":false,"internalType":"string"}],"anonymous":false},{"type":"event","name":"ProofDisputed","inputs":[{"name":"disputer","type":"address","indexed":true,"internalType":"address"},{"name":"proofURI","type":"string","indexed":true,"internalType":"string"},{"name":"disputeURI","type":"string","indexed":false,"internalType":"string"}],"anonymous":false},{"type":"event","name":"ProofRecorded","inputs":[{"name":"creator","type":"address","indexed":true,"internalType":"address"},{"name":"typeID","type":"uint256","indexed":true,"internalType":"uint256"},{"name":"projectURI","type":"string","indexed":false,"internalType":"string"},{"name":"proofURI","type":"string","indexed":false,"internalType":"string"}],"anonymous":false},{"type":"error","name":"OwnableInvalidOwner","inputs":[{"name":"owner","type":"address","internalType":"address"}]},{"type":"error","name":"OwnableUnauthorizedAccount","inputs":[{"name":"account","type":"address","internalType":"address"}]},{"type":"error","name":"SafeERC20FailedOperation","inputs":[{"name":"token","type":"address","internalType":"address"}]}],"bytecode":{"object":"0x608060405234801562000010575f80fd5b5060405162004802380380620048028339810160408190526200003391620001b9565b33806200005957604051631e4fbdf760e01b81525f600482015260240160405180910390fd5b62000064816200013d565b50600180546001600160a01b03998a166001600160a01b03199091161790556002805460ff968716600160a81b0260ff60a81b1998909716600160a01b026001600160a81b031990911698909916979097179790971794909416929092179093556003928355600d6020527ffd54ff1ed53f34a900b24c5ba64f85761163b5d82d98a47b9bd80e45466993c5557f10a81eed9d63d16face5e76357905348e6253d3394086026bb2bf2145d7cc249555f527f26b4a10d0f0b04925c23bd4480ee147c916e5e87a7d68206a533dad160ac81e25562000238565b5f80546001600160a01b038381166001600160a01b0319831681178455604051919092169283917f8be0079c531659141344cd1fd0a4f28419497f9722a3daafe3b4186f6b6457e09190a35050565b80516001600160a01b0381168114620001a3575f80fd5b919050565b805160ff81168114620001a3575f80fd5b5f805f805f805f80610100898b031215620001d2575f80fd5b620001dd896200018c565b9750620001ed60208a016200018c565b9650620001fd60408a01620001a8565b95506200020d60608a01620001a8565b94506080890151935060a0890151925060c0890151915060e089015190509295985092959890939650565b6145bc80620002465f395ff3fe608060405234801561000f575f80fd5b50600436106101f2575f3560e01c80638d26e4a711610114578063d57763a1116100a9578063e251fdcf11610079578063e251fdcf146104b9578063e636eb55146104cc578063f2fde38b146104df578063f49bdbea146104f2578063fb89688d14610505575f80fd5b8063d57763a11461046a578063d69c38ae1461048a578063d7014c6e1461049d578063ddda1e07146104a6575f80fd5b806397b0c0ff116100e457806397b0c0ff1461041d578063bab1ef9514610430578063bc233f9b14610443578063bed29daa14610457575f80fd5b80638d26e4a7146103c15780638da5cb5b146103d45780638f2238ba146103e457806391c9b268146103f7575f80fd5b80633e721abe1161018a578063715018a61161015a578063715018a61461036d57806371bf64fd146103755780637ed40fa31461039b5780638bf75691146103ae575f80fd5b80633e721abe1461030757806344493e7f1461031a5780634fa691e21461032d57806358ee89701461034d575f80fd5b806322fc439f116101c557806322fc439f146102675780632aaf521a146102945780633013ce29146102b75780633b18f691146102e2575f80fd5b80630871e585146101f6578063090b4d311461021f578063189c95f114610234578063218cf11d14610254575b5f80fd5b610209610204366004613a40565b610518565b6040516102169190613aaf565b60405180910390f35b61023261022d366004613bac565b610602565b005b610247610242366004613bfb565b610859565b6040516102169190613da0565b610232610262366004613e06565b610c16565b610286610275366004613e51565b600d6020525f908152604090205481565b604051908152602001610216565b6102a76102a2366004613e6a565b610f28565b6040519015158152602001610216565b6002546102ca906001600160a01b031681565b6040516001600160a01b039091168152602001610216565b6102f56102f0366004613e6a565b610fca565b60405161021696959493929190613ea4565b610232610315366004613f07565b6111ae565b610232610328366004613f4b565b6119aa565b61034061033b366004613e6a565b611cdc565b6040516102169190613f8d565b61036061035b366004613f9f565b612000565b6040516102169190613fb6565b6102326120a6565b60025461038990600160a01b900460ff1681565b60405160ff9091168152602001610216565b6103606103a9366004613f9f565b6120b9565b6102326103bc366004613fc8565b6120c8565b6102866103cf366004613a40565b612343565b5f546001600160a01b03166102ca565b6102326103f2366004613e6a565b61243a565b61040a610405366004613e6a565b61257e565b6040516102169796959493929190614012565b61036061042b366004614071565b6126e8565b61020961043e366004613a40565b61271a565b60025461038990600160a81b900460ff1681565b610360610465366004614071565b6127f9565b61047d610478366004613e6a565b612812565b604051610216919061409b565b610232610498366004614123565b612aa1565b61028660035481565b6102326104b4366004614123565b612f1a565b6102096104c7366004613e6a565b6130de565b6102326104da366004613fc8565b613207565b6102326104ed366004613a40565b613669565b6001546102ca906001600160a01b031681565b610232610513366004614123565b6136a6565b6001600160a01b0381165f908152600a60209081526040808320805482518185028101850190935280835260609492939192909184015b828210156105f7578382905f5260205f2001805461056c90614179565b80601f016020809104026020016040519081016040528092919081815260200182805461059890614179565b80156105e35780601f106105ba576101008083540402835291602001916105e3565b820191905f5260205f20905b8154815290600101906020018083116105c657829003601f168201915b50505050508152602001906001019061054f565b505050509050919050565b61060a613813565b6001600160a01b0381166106655760405162461bcd60e51b815260206004820152601760248201527f496e76616c69642063726561746f72206164647265737300000000000000000060448201526064015b60405180910390fd5b60078260405161067591906141b1565b9081526040519081900360200190205460ff16156106d55760405162461bcd60e51b815260206004820152601960248201527f4d657461646174612055524920616c7265616479207573656400000000000000604482015260640161065c565b5f6005836040516106e691906141b1565b90815260405190819003602001902080546001600160a01b0384166001600160a01b03199091161781555f60018201819055909150610729906002830190613997565b600381016107378482614219565b5060408051602081019091525f815260048201906107559082614219565b50600681810180545f600785018190556001600160a81b03199091169091556001600160a01b03841681526020918252604081208054600181018255908252919020016107a28482614219565b50600480546001810182555f919091527f8a35acfbc15ff81a39ae7d344fd709f28e8600b4aa8c65c6b64bfe7fe36bd19b016107de8482614219565b5060016007846040516107f191906141b1565b908152604051908190036020018120805492151560ff19909316929092179091555f906001600160a01b038416907ffa4b098e431ea3e9694b01acc7953efb1277c5eb3e4c4badf3c0e0e79f857b949061084c908790613fb6565b60405180910390a3505050565b60605f61086683856142e9565b60045490915081111561087857506004545b5f61088385836142fc565b67ffffffffffffffff81111561089b5761089b613b0f565b6040519080825280602002602001820160405280156108d457816020015b6108c16139b2565b8152602001906001900390816108b95790505b509050845b82811015610c0b576005600482815481106108f6576108f661430f565b905f5260205f200160405161090b9190614323565b9081526040805191829003602090810183206101208401835280546001600160a01b031684526001810154848301526002810180548451818502810185018652818152929486019383018282801561098057602002820191905f5260205f20905b81548152602001906001019080831161096c575b5050505050815260200160038201805461099990614179565b80601f01602080910402602001604051908101604052809291908181526020018280546109c590614179565b8015610a105780601f106109e757610100808354040283529160200191610a10565b820191905f5260205f20905b8154815290600101906020018083116109f357829003601f168201915b50505050508152602001600482018054610a2990614179565b80601f0160208091040260200160405190810160405280929190818152602001828054610a5590614179565b8015610aa05780601f10610a7757610100808354040283529160200191610aa0565b820191905f5260205f20905b815481529060010190602001808311610a8357829003601f168201915b5050505050815260200160058201805480602002602001604051908101604052809291908181526020015f905b82821015610b75578382905f5260205f20018054610aea90614179565b80601f0160208091040260200160405190810160405280929190818152602001828054610b1690614179565b8015610b615780601f10610b3857610100808354040283529160200191610b61565b820191905f5260205f20905b815481529060010190602001808311610b4457829003601f168201915b505050505081526020019060010190610acd565b50505090825250600682015460209091019060ff166003811115610b9b57610b9b613ca7565b6003811115610bac57610bac613ca7565b8152600682015461010090046001600160a01b0316602082015260079091015460409091015282610bdd88846142fc565b81518110610bed57610bed61430f565b60200260200101819052508080610c0390614395565b9150506108d9565b509150505b92915050565b610c1e613813565b600782604051610c2e91906141b1565b9081526040519081900360200190205460ff16610c5d5760405162461bcd60e51b815260040161065c906143ad565b5f816003811115610c7057610c70613ca7565b03610cb55760405162461bcd60e51b8152602060048201526015602482015274496d706163742063616e6e6f74206265204e4f4e4560581b604482015260640161065c565b5f600583604051610cc691906141b1565b90815260405190819003602001902090505f600682015460ff166003811115610cf157610cf1613ca7565b14610d335760405162461bcd60e51b8152602060048201526012602482015271125b5c1858dd08185b1c9958591e481cd95d60721b604482015260640161065c565b5f805b6005830154811015610e18575f836005018281548110610d5857610d5861430f565b905f5260205f20018054610d6b90614179565b80601f0160208091040260200160405190810160405280929190818152602001828054610d9790614179565b8015610de25780601f10610db957610100808354040283529160200191610de2565b820191905f5260205f20905b815481529060010190602001808311610dc557829003601f168201915b50505050509050610df281610f28565b15610e055782610e0181614395565b9350505b5080610e1081614395565b915050610d36565b50600254600160a01b900460ff16811015610e815760405162461bcd60e51b815260206004820152602360248201527f4e6f7420656e6f7567682076616c696420506f527320746f2073657420696d706044820152621858dd60ea1b606482015260840161065c565b60068201805484919060ff19166001836003811115610ea257610ea2613ca7565b0217905550600d5f846003811115610ebc57610ebc613ca7565b6003811115610ecd57610ecd613ca7565b81526020019081526020015f205482600701541115610f2257600d5f846003811115610efb57610efb613ca7565b6003811115610f0c57610f0c613ca7565b815260208101919091526040015f205460078301555b50505050565b5f600b82604051610f3991906141b1565b9081526040519081900360200190205460ff16610f685760405162461bcd60e51b815260040161065c906143dd565b5f600983604051610f7991906141b1565b908152604051908190036020019020600481015490915060ff1615610fa057505f92915050565b6003548160030154610fb291906142e9565b421015610fc157505f92915050565b50600192915050565b8051602081830181018051600982529282019190930120915280548190610ff090614179565b80601f016020809104026020016040519081016040528092919081815260200182805461101c90614179565b80156110675780601f1061103e57610100808354040283529160200191611067565b820191905f5260205f20905b81548152906001019060200180831161104a57829003601f168201915b50505050509080600101805461107c90614179565b80601f01602080910402602001604051908101604052809291908181526020018280546110a890614179565b80156110f35780601f106110ca576101008083540402835291602001916110f3565b820191905f5260205f20905b8154815290600101906020018083116110d657829003601f168201915b50505060028401546003850154600486015460058701805496976001600160a01b039094169692955060ff90911693509061112d90614179565b80601f016020809104026020016040519081016040528092919081815260200182805461115990614179565b80156111a45780601f1061117b576101008083540402835291602001916111a4565b820191905f5260205f20905b81548152906001019060200180831161118757829003601f168201915b5050505050905086565b6007816040516111be91906141b1565b9081526040519081900360200190205460ff166111ed5760405162461bcd60e51b815260040161065c906143ad565b5f821161124d5760405162461bcd60e51b815260206004820152602860248201527f46756e64696e6720616d6f756e74206d7573742062652067726561746572207460448201526768616e207a65726f60c01b606482015260840161065c565b600254604051636eb1769f60e11b815233600482015230602482015283916001600160a01b03169063dd62ed3e90604401602060405180830381865afa158015611299573d5f803e3d5ffd5b505050506040513d601f19601f820116820180604052508101906112bd919061440b565b10156113045760405162461bcd60e51b8152602060048201526016602482015275496e73756666696369656e7420616c6c6f77616e636560501b604482015260640161065c565b5f60058260405161131591906141b1565b908152604051908190036020019020600254600582015491925060ff600160a01b9091041611156113885760405162461bcd60e51b815260206004820152601b60248201527f4e6f7420656e6f75676820506f527320666f722066756e64696e670000000000604482015260640161065c565b5f600682015460ff1660038111156113a2576113a2613ca7565b036113e45760405162461bcd60e51b8152602060048201526012602482015271125b5c1858dd081b5d5cdd081899481cd95d60721b604482015260640161065c565b600681015461010090046001600160a01b0316156114535760405162461bcd60e51b815260206004820152602660248201527f50726f6a65637420616c72656164792066756e64656420627920616e6f74686560448201526539103ab9b2b960d11b606482015260840161065c565b60068101548390600d905f9060ff16600381111561147357611473613ca7565b600381111561148457611484613ca7565b81526020019081526020015f205410156114eb5760405162461bcd60e51b815260206004820152602260248201527f46756e64696e6720616d6f756e7420657863656564732074686520616c6c6f77604482015261195960f21b606482015260840161065c565b5f81600701541161154f5760405162461bcd60e51b815260206004820152602860248201527f46756e64696e6720676f616c206d7573742062652073657420666f7220746865604482015267081c1c9bda9958dd60c21b606482015260840161065c565b806007015483146115b15760405162461bcd60e51b815260206004820152602660248201527f46756e64696e6720616d6f756e74206d75737420657175616c2066756e64696e60448201526519c819dbd85b60d21b606482015260840161065c565b5f805b600283015481101561166d575f8360020182815481106115d6576115d661430f565b5f918252602090912001546001546040516399f771a760e01b8152600481018390529192506001600160a01b0316906399f771a790602401602060405180830381865afa158015611629573d5f803e3d5ffd5b505050506040513d601f19601f8201168201806040525081019061164d919061440b565b61165790846142e9565b925050808061166590614395565b9150506115b4565b505f81116116b35760405162461bcd60e51b8152602060048201526013602482015272139bc81d5b9a5d1cc81a5b881c1c9bda9958dd606a1b604482015260640161065c565b6002546116cb906001600160a01b031633308761383f565b5f805f5b6002850154811015611958575f8560020182815481106116f1576116f161430f565b5f9182526020822001546001546040516331a9108f60e11b8152600481018390529193506001600160a01b031690636352211e90602401602060405180830381865afa158015611743573d5f803e3d5ffd5b505050506040513d601f19601f820116820180604052508101906117679190614422565b6001546040516399f771a760e01b8152600481018590529192505f916001600160a01b03909116906399f771a790602401602060405180830381865afa1580156117b3573d5f803e3d5ffd5b505050506040513d601f19601f820116820180604052508101906117d7919061440b565b90505f876117e5838d61443d565b6117ef9190614454565b60028a0154909150611803906001906142fc565b850361181657611813878c6142fc565b90505b80156119415760015460405163e985e9c560e01b81526001600160a01b0385811660048301523060248301529091169063e985e9c590604401602060405180830381865afa15801561186a573d5f803e3d5ffd5b505050506040513d601f19601f8201168201806040525081019061188e9190614473565b156119345760018054604051637921219560e11b81526001600160a01b03868116600483015233602483015260448201889052606482019390935260a060848201525f60a482015291169063f242432a9060c4015f604051808303815f87803b1580156118f9575f80fd5b505af115801561190b573d5f803e3d5ffd5b505060025461192792506001600160a01b0316905084836138a6565b61193181876142e9565b95505b61193e81886142e9565b96505b50505050808061195090614395565b9150506116cf565b505f61196482886142fc565b111561198b5761198b3361197883896142fc565b6002546001600160a01b031691906138a6565b5050506006018054610100600160a81b03191633610100021790555050565b805f036119eb5760405162461bcd60e51b815260206004820152600f60248201526e125b9d985b1a59081d1bdad95b9251608a1b604482015260640161065c565b6007826040516119fb91906141b1565b9081526040519081900360200190205460ff16611a2a5760405162461bcd60e51b815260040161065c90614492565b5f600583604051611a3b91906141b1565b9081526020016040518091039020905080600101545f03611a975760405162461bcd60e51b8152602060048201526016602482015275141c9bda9958dd081d1e5c195251081b9bdd081cd95d60521b604482015260640161065c565b5f5b6002820154811015611b345782826002018281548110611abb57611abb61430f565b905f5260205f20015403611b225760405162461bcd60e51b815260206004820152602860248201527f546f6b656e20494420616c72656164792073746f72656420666f722074686973604482015267081c1c9bda9958dd60c21b606482015260840161065c565b80611b2c81614395565b915050611a99565b506001546040516331a9108f60e11b81526004810184905233916001600160a01b031690636352211e90602401602060405180830381865afa158015611b7c573d5f803e3d5ffd5b505050506040513d601f19601f82011682018060405250810190611ba09190614422565b6001600160a01b031614611bc65760405162461bcd60e51b815260040161065c906144c9565b60018101546001600160801b0319831614611c375760405162461bcd60e51b815260206004820152602b60248201527f546f6b656e204944207479706520646f6573206e6f74206d617463682070726f60448201526a1a9958dd081d1e5c19525160aa1b606482015260840161065c565b60015460405163e985e9c560e01b81523360048201523060248201526001600160a01b039091169063e985e9c590604401602060405180830381865afa158015611c83573d5f803e3d5ffd5b505050506040513d601f19601f82011682018060405250810190611ca79190614473565b611cc35760405162461bcd60e51b815260040161065c9061450e565b60020180546001810182555f9182526020909120015550565b611ce46139b2565b600782604051611cf491906141b1565b9081526040519081900360200190205460ff16611d235760405162461bcd60e51b815260040161065c906143ad565b600582604051611d3391906141b1565b9081526040805191829003602090810183206101208401835280546001600160a01b0316845260018101548483015260028101805484518185028101850186528181529294860193830182828015611da857602002820191905f5260205f20905b815481526020019060010190808311611d94575b50505050508152602001600382018054611dc190614179565b80601f0160208091040260200160405190810160405280929190818152602001828054611ded90614179565b8015611e385780601f10611e0f57610100808354040283529160200191611e38565b820191905f5260205f20905b815481529060010190602001808311611e1b57829003601f168201915b50505050508152602001600482018054611e5190614179565b80601f0160208091040260200160405190810160405280929190818152602001828054611e7d90614179565b8015611ec85780601f10611e9f57610100808354040283529160200191611ec8565b820191905f5260205f20905b815481529060010190602001808311611eab57829003601f168201915b5050505050815260200160058201805480602002602001604051908101604052809291908181526020015f905b82821015611f9d578382905f5260205f20018054611f1290614179565b80601f0160208091040260200160405190810160405280929190818152602001828054611f3e90614179565b8015611f895780601f10611f6057610100808354040283529160200191611f89565b820191905f5260205f20905b815481529060010190602001808311611f6c57829003601f168201915b505050505081526020019060010190611ef5565b50505090825250600682015460209091019060ff166003811115611fc357611fc3613ca7565b6003811115611fd457611fd4613ca7565b8152600682015461010090046001600160a01b0316602082015260079091015460409091015292915050565b6004818154811061200f575f80fd5b905f5260205f20015f91509050805461202790614179565b80601f016020809104026020016040519081016040528092919081815260200182805461205390614179565b801561209e5780601f106120755761010080835404028352916020019161209e565b820191905f5260205f20905b81548152906001019060200180831161208157829003601f168201915b505050505081565b6120ae613813565b6120b75f6138dc565b565b6008818154811061200f575f80fd5b6007836040516120d891906141b1565b9081526040519081900360200190205460ff166121075760405162461bcd60e51b815260040161065c90614492565b5f60058460405161211891906141b1565b9081526020016040518091039020905080600101545f1461217b5760405162461bcd60e51b815260206004820152601a60248201527f50726f6a6563742074797065494420616c726561647920736574000000000000604482015260640161065c565b6001546040516331a9108f60e11b81526004810185905233916001600160a01b031690636352211e90602401602060405180830381865afa1580156121c2573d5f803e3d5ffd5b505050506040513d601f19601f820116820180604052508101906121e69190614422565b6001600160a01b03161461220c5760405162461bcd60e51b815260040161065c906144c9565b60015460405163e985e9c560e01b81523360048201523060248201526001600160a01b039091169063e985e9c590604401602060405180830381865afa158015612258573d5f803e3d5ffd5b505050506040513d601f19601f8201168201806040525081019061227c9190614473565b6122985760405162461bcd60e51b815260040161065c9061450e565b6001546040516399f771a760e01b81526004810185905283916001600160a01b0316906399f771a790602401602060405180830381865afa1580156122df573d5f803e3d5ffd5b505050506040513d601f19601f82011682018060405250810190612303919061440b565b61230d919061443d565b60078201556001600160801b031983166001808301919091556002909101805491820181555f9081526020902001919091555050565b6001600160a01b0381165f908152600a60205260408120815b81548110156124335761240e82828154811061237a5761237a61430f565b905f5260205f2001805461238d90614179565b80601f01602080910402602001604051908101604052809291908181526020018280546123b990614179565b80156124045780601f106123db57610100808354040283529160200191612404565b820191905f5260205f20905b8154815290600101906020018083116123e757829003601f168201915b5050505050610f28565b15612421578261241d81614395565b9350505b8061242b81614395565b91505061235c565b5050919050565b612442613813565b600b8160405161245291906141b1565b9081526040519081900360200190205460ff166124815760405162461bcd60e51b815260040161065c906143dd565b5f60098260405161249291906141b1565b908152604051908190036020019020600481015490915060ff166124f05760405162461bcd60e51b8152602060048201526015602482015274141c9bdbd9881a5cc81b9bdd08191a5cdc1d5d1959605a1b604482015260640161065c565b60048101805460ff1916905560408051602081019091525f815260058201906125199082614219565b508160405161252891906141b1565b60405180910390205f6001600160a01b03167fdf625e08b8500cc8e04d12822ccd587c991a4983363a83c5d3c63cca1356d46f6040516125729060208082525f9082015260400190565b60405180910390a35050565b80516020818301810180516005825292820191909301209152805460018201546003830180546001600160a01b039093169391926125bb90614179565b80601f01602080910402602001604051908101604052809291908181526020018280546125e790614179565b80156126325780601f1061260957610100808354040283529160200191612632565b820191905f5260205f20905b81548152906001019060200180831161261557829003601f168201915b50505050509080600401805461264790614179565b80601f016020809104026020016040519081016040528092919081815260200182805461267390614179565b80156126be5780601f10612695576101008083540402835291602001916126be565b820191905f5260205f20905b8154815290600101906020018083116126a157829003601f168201915b505050506006830154600790930154919260ff8116926101009091046001600160a01b0316915087565b600a602052815f5260405f208181548110612701575f80fd5b905f5260205f20015f9150915050805461202790614179565b6001600160a01b0381165f908152600660209081526040808320805482518185028101850190935280835260609492939192909184015b828210156105f7578382905f5260205f2001805461276e90614179565b80601f016020809104026020016040519081016040528092919081815260200182805461279a90614179565b80156127e55780601f106127bc576101008083540402835291602001916127e5565b820191905f5260205f20905b8154815290600101906020018083116127c857829003601f168201915b505050505081526020019060010190612751565b6006602052815f5260405f208181548110612701575f80fd5b6128536040518060c0016040528060608152602001606081526020015f6001600160a01b031681526020015f81526020015f15158152602001606081525090565b600b8260405161286391906141b1565b9081526040519081900360200190205460ff166128925760405162461bcd60e51b815260040161065c906143dd565b6009826040516128a291906141b1565b90815260200160405180910390206040518060c00160405290815f820180546128ca90614179565b80601f01602080910402602001604051908101604052809291908181526020018280546128f690614179565b80156129415780601f1061291857610100808354040283529160200191612941565b820191905f5260205f20905b81548152906001019060200180831161292457829003601f168201915b5050505050815260200160018201805461295a90614179565b80601f016020809104026020016040519081016040528092919081815260200182805461298690614179565b80156129d15780601f106129a8576101008083540402835291602001916129d1565b820191905f5260205f20905b8154815290600101906020018083116129b457829003601f168201915b505050918352505060028201546001600160a01b0316602082015260038201546040820152600482015460ff1615156060820152600582018054608090920191612a1a90614179565b80601f0160208091040260200160405190810160405280929190818152602001828054612a4690614179565b8015612a915780601f10612a6857610100808354040283529160200191612a91565b820191905f5260205f20905b815481529060010190602001808311612a7457829003601f168201915b5050505050815250509050919050565b600782604051612ab191906141b1565b9081526040519081900360200190205460ff16612ae05760405162461bcd60e51b815260040161065c906143ad565b600b81604051612af091906141b1565b9081526040519081900360200190205460ff1615612b495760405162461bcd60e51b8152602060048201526016602482015275141c9bdbd98815549248185b1c9958591e481d5cd95960521b604482015260640161065c565b5f600583604051612b5a91906141b1565b90815260200160405180910390209050806004018054612b7990614179565b90505f03612bc95760405162461bcd60e51b815260206004820152601c60248201527f4f75747075747320617265206e6f7420796574207265636f7264656400000000604482015260640161065c565b8054336001600160a01b0390911603612c245760405162461bcd60e51b815260206004820152601f60248201527f596f75206172652063726561746f72206f6620746869732070726f6a65637400604482015260640161065c565b6002546005820154600160a81b90910460ff1611612c775760405162461bcd60e51b815260206004820152601060248201526f13585e08141bd49cc81c995858da195960821b604482015260640161065c565b600c83604051612c8791906141b1565b9081526040805160209281900383019020335f908152925290205460ff1615612d0d5760405162461bcd60e51b815260206004820152603260248201527f596f75206861766520616c7265616479207265636f7264656420612070726f6f6044820152711988199bdc881d1a1a5cc81c1c9bda9958dd60721b606482015260840161065c565b5f825111612d515760405162461bcd60e51b8152602060048201526011602482015270496e76616c69642070726f6f662055524960781b604482015260640161065c565b6040805160c081018252838152602080820186905233828401524260608301525f6080830181905283519182018452815260a08201529051600990612d979085906141b1565b90815260405190819003602001902081518190612db49082614219565b5060208201516001820190612dc99082614219565b5060408201516002820180546001600160a01b0319166001600160a01b0390921691909117905560608201516003820155608082015160048201805460ff191691151591909117905560a08201516005820190612e269082614219565b5050506005810180546001810182555f918252602090912001612e498382614219565b50335f908152600a6020908152604082208054600181018255908352912001612e728382614219565b506001600b83604051612e8591906141b1565b908152604051908190036020018120805492151560ff1990931692909217909155600190600c90612eb79086906141b1565b9081526040805160209281900383018120335f8181529190945291909120805460ff1916931515939093179092556001830154917fb41fed1dbab379549fe0aaf41ba06361b6dd402452bd433bb7f01a11eb57a9799061084c9087908790614562565b600782604051612f2a91906141b1565b9081526040519081900360200190205460ff16612f595760405162461bcd60e51b815260040161065c90614492565b5f600583604051612f6a91906141b1565b90815260405190819003602001902080549091506001600160a01b03163314612fe55760405162461bcd60e51b815260206004820152602760248201527f596f7520617265206e6f74207468652063726561746f72206f662074686973206044820152661c1c9bda9958dd60ca1b606482015260840161065c565b80600101545f036130315760405162461bcd60e51b8152602060048201526016602482015275141c9bda9958dd081d1e5c195251081b9bdd081cd95d60521b604482015260640161065c565b80600401805461304090614179565b15905061308f5760405162461bcd60e51b815260206004820152601860248201527f4f75747075747320616c7265616479207265636f726465640000000000000000604482015260640161065c565b6004810161309d8382614219565b508060010154336001600160a01b03167f83810a5ae5d74fe9f6edba3f5afafdd0f80dc76006055b5c9d592bfd84daab66858560405161084c929190614562565b60606007826040516130f091906141b1565b9081526040519081900360200190205460ff1661311f5760405162461bcd60e51b815260040161065c906143ad565b60058260405161312f91906141b1565b9081526020016040518091039020600501805480602002602001604051908101604052809291908181526020015f905b828210156105f7578382905f5260205f2001805461317c90614179565b80601f01602080910402602001604051908101604052809291908181526020018280546131a890614179565b80156131f35780601f106131ca576101008083540402835291602001916131f3565b820191905f5260205f20905b8154815290600101906020018083116131d657829003601f168201915b50505050508152602001906001019061315f565b60078360405161321791906141b1565b9081526040519081900360200190205460ff16156132775760405162461bcd60e51b815260206004820152601b60248201527f4d657461646174612055524920616c726561647920696e207573650000000000604482015260640161065c565b5f61328133612343565b600254909150600160a01b900460ff168110156132f65760405162461bcd60e51b815260206004820152602d60248201527f4e6f7420656e6f75676820617661696c61626c6520506f527320746f2072656760448201526c1a5cdd195c881c1c9bda9958dd609a1b606482015260840161065c565b6001546040516331a9108f60e11b81526004810185905233916001600160a01b031690636352211e90602401602060405180830381865afa15801561333d573d5f803e3d5ffd5b505050506040513d601f19601f820116820180604052508101906133619190614422565b6001600160a01b0316146133dd5760405162461bcd60e51b815260206004820152603b60248201527f596f7520617265206e6f74206f776e6572206f6620746f6b656e4944206f722060448201527f74686520746f6b656e494420646f6573206e6f74206578697374730000000000606482015260840161065c565b60015460405163e985e9c560e01b81523360048201523060248201526001600160a01b039091169063e985e9c590604401602060405180830381865afa158015613429573d5f803e3d5ffd5b505050506040513d601f19601f8201168201806040525081019061344d9190614473565b6134695760405162461bcd60e51b815260040161065c9061450e565b5f60058560405161347a91906141b1565b90815260405190819003602090810190912080546001600160a01b031916331781556001600160801b0319861660018083019190915560028201805491820181555f908152929092209091018590559050600381016134d98682614219565b5060408051602081019091525f815260048201906134f79082614219565b5060068101805460ff191690556001546040516399f771a760e01b81526004810186905284916001600160a01b0316906399f771a790602401602060405180830381865afa15801561354b573d5f803e3d5ffd5b505050506040513d601f19601f8201168201806040525081019061356f919061440b565b613579919061443d565b600782015560068082018054610100600160a81b0319169055335f9081526020918252604081208054600181018255908252919020016135b98682614219565b50600480546001810182555f919091527f8a35acfbc15ff81a39ae7d344fd709f28e8600b4aa8c65c6b64bfe7fe36bd19b016135f58682614219565b50600160078660405161360891906141b1565b908152604051908190036020018120805492151560ff19909316929092179091555f9033907ffa4b098e431ea3e9694b01acc7953efb1277c5eb3e4c4badf3c0e0e79f857b949061365a908990613fb6565b60405180910390a35050505050565b613671613813565b6001600160a01b03811661369a57604051631e4fbdf760e01b81525f600482015260240161065c565b6136a3816138dc565b50565b600b826040516136b691906141b1565b9081526040519081900360200190205460ff166136e55760405162461bcd60e51b815260040161065c906143dd565b5f8151116137355760405162461bcd60e51b815260206004820152601b60248201527f44697370757465205552492063616e6e6f7420626520656d7074790000000000604482015260640161065c565b5f60098360405161374691906141b1565b908152604051908190036020019020600481015490915060ff16156137a65760405162461bcd60e51b8152602060048201526016602482015275141c9bdbd988185b1c9958591e48191a5cdc1d5d195960521b604482015260640161065c565b60048101805460ff19166001179055600581016137c38382614219565b50826040516137d291906141b1565b6040518091039020336001600160a01b03167fdf625e08b8500cc8e04d12822ccd587c991a4983363a83c5d3c63cca1356d46f8460405161084c9190613fb6565b5f546001600160a01b031633146120b75760405163118cdaa760e01b815233600482015260240161065c565b6040516001600160a01b038481166024830152838116604483015260648201839052610f229186918216906323b872dd906084015b604051602081830303815290604052915060e01b6020820180516001600160e01b03838183161783525050505061392b565b6040516001600160a01b038381166024830152604482018390526138d791859182169063a9059cbb90606401613874565b505050565b5f80546001600160a01b038381166001600160a01b0319831681178455604051919092169283917f8be0079c531659141344cd1fd0a4f28419497f9722a3daafe3b4186f6b6457e09190a35050565b5f8060205f8451602086015f885af18061394a576040513d5f823e3d81fd5b50505f513d9150811561396157806001141561396e565b6001600160a01b0384163b155b15610f2257604051635274afe760e01b81526001600160a01b038516600482015260240161065c565b5080545f8255905f5260205f20908101906136a39190613a14565b6040518061012001604052805f6001600160a01b031681526020015f8152602001606081526020016060815260200160608152602001606081526020015f6003811115613a0157613a01613ca7565b81525f6020820181905260409091015290565b5b80821115613a28575f8155600101613a15565b5090565b6001600160a01b03811681146136a3575f80fd5b5f60208284031215613a50575f80fd5b8135613a5b81613a2c565b9392505050565b5f5b83811015613a7c578181015183820152602001613a64565b50505f910152565b5f8151808452613a9b816020860160208601613a62565b601f01601f19169290920160200192915050565b5f602080830181845280855180835260408601915060408160051b87010192508387015f5b82811015613b0257603f19888603018452613af0858351613a84565b94509285019290850190600101613ad4565b5092979650505050505050565b634e487b7160e01b5f52604160045260245ffd5b5f82601f830112613b32575f80fd5b813567ffffffffffffffff80821115613b4d57613b4d613b0f565b604051601f8301601f19908116603f01168101908282118183101715613b7557613b75613b0f565b81604052838152866020858801011115613b8d575f80fd5b836020870160208301375f602085830101528094505050505092915050565b5f8060408385031215613bbd575f80fd5b823567ffffffffffffffff811115613bd3575f80fd5b613bdf85828601613b23565b9250506020830135613bf081613a2c565b809150509250929050565b5f8060408385031215613c0c575f80fd5b50508035926020909101359150565b5f8151808452602080850194508084015f5b83811015613c4957815187529582019590820190600101613c2d565b509495945050505050565b5f81518084526020808501808196508360051b810191508286015f5b85811015613c9a578284038952613c88848351613a84565b98850198935090840190600101613c70565b5091979650505050505050565b634e487b7160e01b5f52602160045260245ffd5b60048110613cd757634e487b7160e01b5f52602160045260245ffd5b9052565b80516001600160a01b031682525f610120602083015160208501526040830151816040860152613d0d82860182613c1b565b91505060608301518482036060860152613d278282613a84565b91505060808301518482036080860152613d418282613a84565b91505060a083015184820360a0860152613d5b8282613c54565b91505060c0830151613d7060c0860182613cbb565b5060e0830151613d8b60e08601826001600160a01b03169052565b50610100928301519390920192909252919050565b5f602080830181845280855180835260408601915060408160051b87010192508387015f5b82811015613b0257603f19888603018452613de1858351613cdb565b94509285019290850190600101613dc5565b803560048110613e01575f80fd5b919050565b5f8060408385031215613e17575f80fd5b823567ffffffffffffffff811115613e2d575f80fd5b613e3985828601613b23565b925050613e4860208401613df3565b90509250929050565b5f60208284031215613e61575f80fd5b613a5b82613df3565b5f60208284031215613e7a575f80fd5b813567ffffffffffffffff811115613e90575f80fd5b613e9c84828501613b23565b949350505050565b60c081525f613eb660c0830189613a84565b8281036020840152613ec88189613a84565b6001600160a01b038816604085015260608401879052851515608085015283810360a08501529050613efa8185613a84565b9998505050505050505050565b5f8060408385031215613f18575f80fd5b82359150602083013567ffffffffffffffff811115613f35575f80fd5b613f4185828601613b23565b9150509250929050565b5f8060408385031215613f5c575f80fd5b823567ffffffffffffffff811115613f72575f80fd5b613f7e85828601613b23565b95602094909401359450505050565b602081525f613a5b6020830184613cdb565b5f60208284031215613faf575f80fd5b5035919050565b602081525f613a5b6020830184613a84565b5f805f60608486031215613fda575f80fd5b833567ffffffffffffffff811115613ff0575f80fd5b613ffc86828701613b23565b9660208601359650604090950135949350505050565b5f60018060a01b03808a16835288602084015260e0604084015261403960e0840189613a84565b838103606085015261404b8189613a84565b92505061405b6080840187613cbb565b9390931660a082015260c0015295945050505050565b5f8060408385031215614082575f80fd5b823561408d81613a2c565b946020939093013593505050565b602081525f825160c060208401526140b660e0840182613a84565b90506020840151601f19808584030160408601526140d48383613a84565b925060018060a01b036040870151166060860152606086015160808601526080860151151560a086015260a08601519150808584030160c08601525061411a8282613a84565b95945050505050565b5f8060408385031215614134575f80fd5b823567ffffffffffffffff8082111561414b575f80fd5b61415786838701613b23565b9350602085013591508082111561416c575f80fd5b50613f4185828601613b23565b600181811c9082168061418d57607f821691505b6020821081036141ab57634e487b7160e01b5f52602260045260245ffd5b50919050565b5f82516141c2818460208701613a62565b9190910192915050565b601f8211156138d7575f81815260208120601f850160051c810160208610156141f25750805b601f850160051c820191505b81811015614211578281556001016141fe565b505050505050565b815167ffffffffffffffff81111561423357614233613b0f565b614247816142418454614179565b846141cc565b602080601f83116001811461427a575f84156142635750858301515b5f19600386901b1c1916600185901b178555614211565b5f85815260208120601f198616915b828110156142a857888601518255948401946001909101908401614289565b50858210156142c557878501515f19600388901b60f8161c191681555b5050505050600190811b01905550565b634e487b7160e01b5f52601160045260245ffd5b80820180821115610c1057610c106142d5565b81810381811115610c1057610c106142d5565b634e487b7160e01b5f52603260045260245ffd5b5f80835461433081614179565b60018281168015614348576001811461435d57614389565b60ff1984168752821515830287019450614389565b875f526020805f205f5b858110156143805781548a820152908401908201614367565b50505082870194505b50929695505050505050565b5f600182016143a6576143a66142d5565b5060010190565b602080825260169082015275141c9bda9958dd08191bd95cc81b9bdd08195e1a5cdd60521b604082015260600190565b602080825260149082015273141c9bdbd988191bd95cc81b9bdd08195e1a5cdd60621b604082015260600190565b5f6020828403121561441b575f80fd5b5051919050565b5f60208284031215614432575f80fd5b8151613a5b81613a2c565b8082028115828204841417610c1057610c106142d5565b5f8261446e57634e487b7160e01b5f52601260045260245ffd5b500490565b5f60208284031215614483575f80fd5b81518015158114613a5b575f80fd5b6020808252601a908201527f50726f6a65637420646f6573206e6f7420657869737420796574000000000000604082015260600190565b60208082526025908201527f596f7520617265206e6f7420746865206f776e6572206f66207468697320746f6040820152641ad95b925160da1b606082015260800190565b60208082526034908201527f596f75206d7573742073657420616c6c6f77616e636520666f72207472616e73604082015273666572206f6620696d706163742061737365747360601b606082015260800190565b604081525f6145746040830185613a84565b828103602084015261411a8185613a8456fea264697066735822122068035a0dab8336b3d019d547f2d5a3b04d67365b1664196261dcc290b534783b64736f6c63430008140033","linkReferences":{}},"methodIdentifiers":{"allProjectURIs(uint256)":"58ee8970","allProofURIs(uint256)":"7ed40fa3","disputeProof(string,string)":"fb89688d","disputeWindowPoR()":"d7014c6e","fundProject(uint256,string)":"3e721abe","getAllProjects(uint256,uint256)":"189c95f1","getProject(string)":"4fa691e2","getProof(string)":"d57763a1","getProofURIsByProject(string)":"e251fdcf","getUserAvailablePoRCount(address)":"8d26e4a7","getUserProjectURIs(address)":"bab1ef95","getUserProofURIs(address)":"0871e585","hypercertToken()":"f49bdbea","initProject(string,address)":"090b4d31","isProofValid(string)":"2aaf521a","maxFundingForImpact(uint8)":"22fc439f","maxPoRProject()":"bc233f9b","minRequiredPoR()":"71bf64fd","owner()":"8da5cb5b","paymentToken()":"3013ce29","projects(string)":"91c9b268","proofs(string)":"3b18f691","recordOutputs(string,string)":"ddda1e07","recordProof(string,string)":"d69c38ae","registerProject(string,uint256,uint256)":"e636eb55","renounceOwnership()":"715018a6","resolveDispute(string)":"8f2238ba","setProjectImpact(string,uint8)":"218cf11d","storeTokenID(string,uint256)":"44493e7f","storeTokenIDInit(string,uint256,uint256)":"8bf75691","transferOwnership(address)":"f2fde38b","userProjectURIs(address,uint256)":"bed29daa","userProofURIs(address,uint256)":"97b0c0ff"},"id":33}